:100000000C9434000C9446000C9446000C9446006A
:100010000C9446000C9446000C9446000C94460048
:100020000C9446000C9446000C9446000C94460038
:100030000C9446000C949A010C9446000C944600D3
:100040000C94A2030C9446000C9446000C944600B9
:100050000C9446000C9446000C9446000C94460008
:100060000C9446000C94460011241FBECFEFD8E03C
:10007000DEBFCDBF21E0A0E0B1E001C01D92A43001
:10008000B207E1F70E9402060C946D080C94000080
:10009000CF93DF93CDB7DEB76C970FB6F894DEBF82
:1000A0000FBECDBF84E290E020E2FC01208385E218
:1000B00090E025E230E0F90120812062FC012083FC
:1000C00080E090E0AAE7B4E489839A83AB83BC83A1
:1000D00020E030E04AE755E469817A818B819C8198
:1000E0000E940008DC01CB018D839E83AF83B8871B
:1000F00020E030E040E85FE36D817E818F8198856C
:100100000E949C0688232CF481E090E09A878987DE
:100110003FC020E03FEF4FE757E46D817E818F8144
:1001200098850E94FB0718164CF520E030E040E26D
:1001300051E469817A818B819C810E940008DC01F5
:10014000CB01BC01CD010E941A07DC01CB019A87CB
:1001500089870FC080E991E09C878B878B859C8580
:100160000197F1F79C878B8789859A8501979A87F4
:10017000898789859A85892B69F714C06D817E816D
:100180008F8198850E941A07DC01CB019A878987A5
:1001900089859A859E878D878D859E850197F1F744
:1001A0009E878D8785E290E025E230E0F90120818D
:1001B0002F7DFC01208380E090E0AAE7B4E48F87E4
:1001C000988BA98BBA8B20E030E04AE755E46F8525
:1001D000788989899A890E940008DC01CB018B8B80
:1001E0009C8BAD8BBE8B20E030E040E85FE36B89F9
:1001F0007C898D899E890E949C0688232CF481E04D
:1002000090E0988F8F8B3FC020E03FEF4FE757E49F
:100210006B897C898D899E890E94FB0718164CF595
:1002200020E030E040E251E46F85788989899A893D
:100230000E940008DC01CB01BC01CD010E941A071D
:10024000DC01CB01988F8F8B0FC080E991E09A8FF2
:10025000898F898D9A8D0197F1F79A8F898F8F8970
:10026000988D0197988F8F8B8F89988D892B69F73F
:1002700014C06B897C898D899E890E941A07DC01D4
:10028000CB01988F8F8B8F89988D9C8F8B8F8B8DC7
:100290009C8D0197F1F79C8F8B8F09CFCF93DF93C4
:1002A000CDB7DEB780E890E0FC01108281E890E0F5
:1002B00021E830E0F90120812160FC0120838FE6F4
:1002C00090E02FE630E0F90120812160FC012083DD
:1002D0008FE590E02FE530E0F90120812068FC01F6
:1002E0002083DF91CF910895CF93DF93CDB7DEB711
:1002F00083EB90E0FC01108280EB90E020EB30E09B
:10030000F90120812068FC01208380EB90E020EB44
:1003100030E0F90120812360FC01208381EB90E033
:1003200021EB30E0F90120812260FC012083DF9184
:10033000CF9108951F920F9200905F000F921124A9
:100340008F939F93EF93FF93CF93DF93CDB7DEB758
:1003500080910201805F8093020183E290E0FC01C2
:100360008081882F90E0807199279093010180937C
:100370000001DF91CF91FF91EF919F918F910F90AD
:1003800000925F000F901F901895CF93DF93CDB729
:10039000DEB7A2970FB6F894DEBF0FBECDBF84E2E2
:1003A00090E02CE2FC01208385E290E025E230E041
:1003B000F90120812B7FFC0120830E944E010E94C5
:1003C000740185E290E025E230E0F90120812B7F85
:1003D000FC01208380E090E0A0EAB0E48F8398875E
:1003E000A987BA8720E030E04AE755E46F81788535
:1003F00089859A850E940008DC01CB018B879C8748
:10040000AD87BE8720E030E040E85FE36B857C8508
:100410008D859E850E949C0688232CF481E090E0C7
:10042000988B8F873FC020E03FEF4FE757E46B8505
:100430007C858D859E850E94FB0718164CF520E073
:1004400030E040E251E46F81788589859A850E9489
:100450000008DC01CB01BC01CD010E941A07DC01C0
:10046000CB01988B8F870FC080E991E09A8B898BA5
:1004700089899A890197F1F79A8B898B8F85988959
:100480000197988B8F878F859889892B69F714C07E
:100490006B857C858D859E850E941A07DC01CB01CA
:1004A000988B8F878F8598899C8B8B8B8B899C8968
:1004B0000197F1F79C8B8B8B85E290E025E230E091
:1004C000F90120812460FC01208380E090E0A0E21B
:1004D000B1E48D8B9E8BAF8BB88F20E030E04AE784
:1004E00055E46D897E898F89988D0E940008DC0112
:1004F000CB01898F9A8FAB8FBC8F20E030E040E832
:100500005FE3698D7A8D8B8D9C8D0E949C0688237C
:100510002CF481E090E09E8F8D8F3FC020E03FEF74
:100520004FE757E4698D7A8D8B8D9C8D0E94FB0778
:1005300018164CF520E030E040E251E46D897E89E8
:100540008F89988D0E940008DC01CB01BC01CD0190
:100550000E941A07DC01CB019E8F8D8F0FC080E9AE
:1005600091E098A38F8F8F8D98A10197F1F798A3B1
:100570008F8F8D8D9E8D01979E8F8D8F8D8D9E8DF2
:10058000892B69F714C0698D7A8D8B8D9C8D0E94A3
:100590001A07DC01CB019E8F8D8F8D8D9E8D9AA3C6
:1005A00089A389A19AA10197F1F79AA389A385E26A
:1005B00090E025E230E0F90120812B7FFC012083CF
:1005C00085E290E025E230E0F90120812062FC0123
:1005D000208310920201000080910001909101019E
:1005E000892BD1F3809102018536B0F71092020178
:1005F0000000809100019091010118161906CCF3BA
:10060000809102018536A8F785E290E025E230E08E
:10061000F90120812F7DFC01208380910201982F18
:10062000969587E4989F812D1124869586958695C9
:10063000882F90E0092E000CAA0BBB0BBC01CD014A
:100640000E944B07DC01CB0189839A83AB83BC8377
:1006500020E030E040E050E469817A818B819C8128
:100660000E942F06DC01CB0120E030E048EC53E48F
:10067000BC01CD010E94A106DC01CB0120E030E0ED
:100680004FE753E4BC01CD010E940008DC01CB011F
:10069000BC01CD010E941307DC01CB019E838D8339
:1006A00083EB90E02D81FC0120838BCECF93DF93F1
:1006B000CDB7DEB784E490E0FC01108285E490E0E1
:1006C00025E430E0F90120812460FC0120838EE6DE
:1006D00090E02EE630E0F90120812160FC012083CA
:1006E0008FE590E02FE530E0F90120812068FC01E2
:1006F0002083DF91CF910895CF93DF93CDB7DEB7FD
:1007000083EB90E0FC01108280EB90E020EB30E086
:10071000F90120812068FC01208380EB90E020EB30
:1007200030E0F90120812360FC01208381EB90E01F
:1007300021EB30E0F90120812260FC012083DF9170
:10074000CF9108951F920F9200905F000F92112495
:100750002F938F939F93EF93FF93CF93DF9300D0CB
:10076000CDB7DEB7809103018F5F80930301809145
:100770000301843FD1F41092030183EB90E0FC016C
:100780008081882F90E00F969A83898389819A814E
:100790008F3F910529F024F08FEF90E09A838983B1
:1007A00083EB90E02981FC0120830F900F90DF9173
:1007B000CF91FF91EF919F918F912F910F90009288
:1007C0005F000F901F901895CF93DF93CDB7DEB7E2
:1007D00084E290E028E2FC0120830E9456030E94FC
:1007E0007C03FFCFCF93DF93CDB7DEB784E490E0F7
:1007F000FC01108285E490E025E430E0F9012081DD
:100800002460FC012083DF91CF910895CF93DF9383
:1008100000D0CDB7DEB781E090E09A8389831DC018
:1008200086E490E0FC011082000085E390E0FC018A
:100830008081882F90E081709927892BB1F385E31F
:1008400090E025E330E0F90120812160FC01208364
:1008500089819A8101969A83898389819A818536D3
:100860009105F0F20F900F90DF91CF910895CF9303
:10087000DF93CDB7DEB784E290E020E2FC01208375
:100880000E94F20385E290E025E230E0F901208148
:100890002062FC0120830E94060485E290E025E2AC
:1008A00030E0F90120812F7DFC0120830E940604A5
:1008B000E9CFCF93DF93CDB7DEB78CE790E020E4AC
:1008C000FC0120838AE790E027E8FC012083DF9188
:1008D000CF910895CF93DF9300D000D000D0CDB753
:1008E000DEB79E838D838D819E81877099279E833D
:1008F0008D838CE790E02CE730E0F90130812D8189
:10090000232BFC0120838AE790E02AE730E0F901FD
:1009100020812064FC01208300008AE790E0FC0134
:100920008081882F90E080719927892BB1F38AE725
:1009300090E02AE730E0F90120812061FC0120836A
:1009400088E790E0FC018081898389E790E0FC01E1
:1009500080818A838A81882F90E0382F222789819D
:10096000882F90E0822B932B9C838B838B819C819F
:1009700026960FB6F894DEBF0FBECDBFDF91CF91A4
:100980000895CF93DF93CDB7DEB7A6970FB6F8944F
:10099000DEBF0FBECDBF84E290E020E2FC012083E9
:1009A0000E94590480E090E00E946A049A8389833F
:1009B00089819A81CC01A0E0B0E0BC01CD010E9408
:1009C0004907DC01CB0120E030E040E854E4BC0101
:1009D000CD010E94A106DC01CB0120E030E44CE90E
:1009E00055E4BC01CD010E940008DC01CB018B83E2
:1009F0009C83AD83BE8320E030E040E251E46B8114
:100A00007C818D819E810E94A106DC01CB018F83B8
:100A10009887A987BA8780E090E8ABE3B4E48B8736
:100A20009C87AD87BE8720E030E04AE755E46B85C0
:100A30007C858D859E850E940008DC01CB018F8717
:100A4000988BA98BBA8B20E030E040E85FE36F859C
:100A5000788989899A890E949C0688232CF481E0F0
:100A600090E09C8B8B8B3FC020E03FEF4FE757E43B
:100A70006F85788989899A890E94FB0718164CF539
:100A800020E030E040E251E46B857C858D859E85D9
:100A90000E940008DC01CB01BC01CD010E941A07B5
:100AA000DC01CB019C8B8B8B0FC080E991E09E8B8E
:100AB0008D8B8D899E890197F1F79E8B8D8B8B890C
:100AC0009C8901979C8B8B8B8B899C89892B69F7DF
:100AD00014C06F85788989899A890E941A07DC0178
:100AE000CB019C8B8B8B8B899C89988F8F8B8F896B
:100AF000988D0197F1F7988F8F8B85E290E025E232
:100B000030E0F90120812062FC01208380E090E048
:100B1000AAE7B3E4898F9A8FAB8FBC8F20E030E0D7
:100B20004AE755E4698D7A8D8B8D9C8D0E94000873
:100B3000DC01CB018D8F9E8FAF8FB8A320E030E01A
:100B400040E85FE36D8D7E8D8F8D98A10E949C069D
:100B500088232CF481E090E09AA389A33FC020E091
:100B60003FEF4FE757E46D8D7E8D8F8D98A10E94EA
:100B7000FB0718164CF520E030E040E251E4698DA7
:100B80007A8D8B8D9C8D0E940008DC01CB01BC010D
:100B9000CD010E941A07DC01CB019AA389A30FC0E3
:100BA00080E991E09CA38BA38BA19CA10197F1F715
:100BB0009CA38BA389A19AA101979AA389A389A138
:100BC0009AA1892B69F714C06D8D7E8D8F8D98A1A8
:100BD0000E941A07DC01CB019AA389A389A19AA1DB
:100BE0009EA38DA38DA19EA10197F1F79EA38DA336
:100BF00085E290E025E230E0F90120812F7DFC01C3
:100C00002083D0CECF93DF9300D0CDB7DEB784E082
:100C100090E09A83898389819A818130910579F066
:100C2000823091051CF4892B39F012C08230910575
:100C300049F0049751F00CC00E9448000BC00E947C
:100C4000370408C00E94C10405C00E94C50102C04B
:100C500080E090E00F900F90DF91CF910895505871
:100C6000BB27AA270E9447060C94C1070E94B3071E
:100C700038F00E94BA0720F039F49F3F19F426F4A7
:100C80000C94B0070EF4E095E7FB0C94AA07E92F4B
:100C90000E94D20758F3BA176207730784079507B3
:100CA00020F079F4A6F50C94F4070EF4E0950B2EE1
:100CB000BA2FA02D0B01B90190010C01CA01A001AE
:100CC0001124FF27591B99F0593F50F4503E68F109
:100CD0001A16F040A22F232F342F4427585FF3CF4A
:100CE000469537952795A795F0405395C9F77EF41B
:100CF0001F16BA0B620B730B840BBAF09150A1F064
:100D0000FF0FBB1F661F771F881FC2F70EC0BA0FE9
:100D1000621F731F841F48F4879577956795B79571
:100D2000F7959E3F08F0B0CF9395880F08F099276C
:100D3000EE0F9795879508950E94860708F481E045
:100D400008950E94B5060C94C1070E94BA0758F096
:100D50000E94B30740F029F45F3F29F00C94AA07E2
:100D600051110C94F5070C94B0070E94D20768F358
:100D70009923B1F3552391F3951B550BBB27AA2754
:100D800062177307840738F09F5F5F4F220F331F8E
:100D9000441FAA1FA9F335D00E2E3AF0E0E832D056
:100DA00091505040E695001CCAF72BD0FE2F29D059
:100DB000660F771F881FBB1F261737074807AB072B
:100DC000B0E809F0BB0B802DBF01FF2793585F4FA0
:100DD0003AF09E3F510578F00C94AA070C94F50761
:100DE0005F3FE4F3983ED4F3869577956795B79582
:100DF000F7959F5FC9F7880F911D9695879597F98D
:100E00000895E1E0660F771F881FBB1F6217730705
:100E10008407BA0720F0621B730B840BBA0BEE1F1A
:100E200088F7E09508950E941A076894B1110C9410
:100E3000F50708950E94DA0788F09F5798F0B92FB8
:100E40009927B751B0F0E1F0660F771F881F991FFF
:100E50001AF0BA95C9F714C0B13091F00E94F407A6
:100E6000B1E008950C94F407672F782F8827B85FB6
:100E700039F0B93FCCF3869577956795B395D9F757
:100E80003EF490958095709561957F4F8F4F9F4F61
:100E90000895E89409C097FB3EF49095809570956D
:100EA00061957F4F8F4F9F4F9923A9F0F92F96E9B6
:100EB000BB279395F695879577956795B795F1112B
:100EC000F8CFFAF4BB0F11F460FF1BC06F5F7F4FC8
:100ED0008F4F9F4F16C0882311F096E911C07723DA
:100EE00021F09EE8872F762F05C0662371F096E8E3
:100EF000862F70E060E02AF09A95660F771F881FB2
:100F0000DAF7880F9695879597F90895990F000855
:100F1000550FAA0BE0E8FEEF16161706E807F907CB
:100F2000C0F012161306E407F50798F0621B730B66
:100F3000840B950B39F40A2661F0232B242B252BE7
:100F400021F408950A2609F4A140A6958FEF811D8A
:100F5000811D089597F99F6780E870E060E008952B
:100F60009FEF80EC089500240A94161617061806C1
:100F70000906089500240A9412161306140605069D
:100F80000895092E0394000C11F4882352F0BB0F2E
:100F900040F4BF2B11F460FF04C06F5F7F4F8F4F91
:100FA0009F4F089557FD9058440F551F59F05F3FCC
:100FB00071F04795880F97FB991F61F09F3F79F07B
:100FC00087950895121613061406551FF2CF4695FD
:100FD000F1DF08C0161617061806991FF1CF86957F
:100FE0007105610508940895E894BB276627772763
:100FF000CB0197F908950E94860708F48FEF0895B2
:101000000E9413080C94C1070E94B30738F00E9495
:10101000BA0720F0952311F00C94AA070C94B0079E
:1010200011240C94F5070E94D20770F3959FC1F329
:10103000950F50E0551F629FF001729FBB27F00D86
:10104000B11D639FAA27F00DB11DAA1F649F6627DB
:10105000B00DA11D661F829F2227B00DA11D621F2A
:10106000739FB00DA11D621F839FA00D611D221FE4
:10107000749F3327A00D611D231F849F600D211DC8
:10108000822F762F6A2F11249F5750409AF0F1F04B
:1010900088234AF0EE0FFF1FBB1F661F771F881FB4
:1010A00091505040A9F79E3F510580F00C94AA073B
:1010B0000C94F5075F3FE4F3983ED4F3869577955B
:1010C0006795B795F795E7959F5FC1F7FE2B880F5A
:0E10D000911D9695879597F90895F894FFCF96
:00000001FF
