:100000005EC000003DC1000062C100007DC0000074
:100010007BC0000079C0000077C0000053C500001D
:1000200073C0000071C000006FC000006DC0000010
:100030006BC00000ADC5000067C0000065C00000D7
:100040006DC1000061C000009BC30000CBC3000075
:100050005BC0000059C0000057C0000055C0000040
:1000600053C0000051C00000000000080002010061
:100070000003040700000000000000000102040863
:100080001020408001020408102001020408102002
:10009000040404040404040402020202020203032E
:1000A0000303030300000000250028002B000000CC
:1000B0000000240027002A000200170483041124F2
:1000C0001FBECFEFD8E0DEBFCDBF11E0A0E0B1E0B2
:1000D000E4ECFFE002C005900D92A833B107D9F718
:1000E00021E0A8E3B1E001C01D92AC3FB207E1F707
:1000F00010E0CFE5D0E003C02197FE015BD7CD35FE
:10010000D107D1F7A7D55CC77BCF662311F061E09B
:1001100001C060E0B1C1662311F061E001C060E0A0
:10012000E7C14F925F926F927F928F929F92AF92B0
:10013000BF92CF92DF92EF92FF928090F501909064
:10014000F601A090F701B090F801C501B4015CD6AA
:100150002B013C01209112013091130140911401B7
:10016000509115011FD687FF0BC0B7FC09C0C09086
:100170000A01D0900B01E0900C01F0900D0103C03A
:10018000C12CD12C760120E030E040E85FE36091A3
:100190000E0170910F0180911001909111019DD578
:1001A0009B01AC01C301B201DFD687FD09C01092EB
:1001B000F5011092F6011092F7011092F8010DC0AE
:1001C0008FEF881A980AA80AB80A8092F5019092CF
:1001D000F601A092F701B092F80120E030E040E88B
:1001E00053E4C701B601DED587FF0CC020E030E044
:1001F000A901C701B601B8D687FD06C0C701B6017F
:10020000D5D503C06FEF01C060E08DE0FF90EF90A7
:10021000DF90CF90BF90AF909F908F907F906F9026
:100220005F904F9078CF1F93CF93DF931092FB0195
:100230001092FA01CFEED1E08BE0FE0111928A9587
:10024000E9F711E01A8781E090E0A0E0B0E089834F
:100250009A83AB83BC8361E08DE057DF1D831E82F0
:100260001F8218861986DF91CF911F910895809182
:10027000EF01811103C081E08093EF01089508959B
:100280001F920F920FB60F9211242F933F934F930B
:100290005F936F937F938F939F93AF93BF93EF93EE
:1002A000FF93E0911A01F0911B010995FF91EF91E5
:1002B000BF91AF919F918F917F916F915F914F917E
:1002C0003F912F910F900FBE0F901F9018951F9286
:1002D0000F920FB60F9211242F933F934F935F937A
:1002E0006F937F938F939F93AF93BF93EF93FF93FE
:1002F000E0911C01F0911D010995FF91EF91BF91D3
:10030000AF919F918F917F916F915F914F913F91AD
:100310002F910F900FBE0F901F9018951F920F9264
:100320000FB60F9211242F933F938F939F93AF9308
:10033000BF938091390190913A01A0913B01B09116
:100340003C013091380123E0230F2D3720F4019632
:10035000A11DB11D05C026E8230F0296A11DB11DE8
:10036000209338018093390190933A01A0933B0187
:10037000B0933C0180913D0190913E01A0913F01DD
:10038000B09140010196A11DB11D80933D01909354
:100390003E01A0933F01B0934001BF91AF919F9167
:1003A0008F913F912F910F900FBE0F901F90189536
:1003B000789484B5826084BD84B5816084BD85B540
:1003C000826085BD85B5816085BDEEE6F0E0808107
:1003D00081608083E1E8F0E0108280818260808328
:1003E000808181608083E0E8F0E0808181608083AB
:1003F000E1EBF0E0808184608083E0EBF0E08081DD
:1004000081608083EAE7F0E080818460808380817E
:100410008260808380818160808380818068808326
:100420001092C1000895833081F028F4813099F052
:100430008230A1F008958730A9F08830B9F0843077
:10044000D1F4809180008F7D03C0809180008F77F0
:1004500080938000089584B58F7702C084B58F7D26
:1004600084BD08958091B0008F7703C08091B00063
:100470008F7D8093B0000895CF93DF9390E0FC01CF
:10048000E458FF4F2491FC01E057FF4F84918823EB
:1004900061F190E0880F991FFC01E255FF4FC59173
:1004A000D491FC01EC55FF4FA591B491611109C0A5
:1004B0009FB7F8948881209582238883EC912E231E
:1004C0000BC0623061F49FB7F8943881822F809519
:1004D00083238883EC912E2B2C939FBF06C08FB76C
:1004E000F894E8812E2B28838FBFDF91CF91089558
:1004F0001F93CF93DF93282F30E0F901E859FF4F86
:100500008491F901E458FF4FD491F901E057FF4F6E
:10051000C491CC23C1F0162F811185DFEC2FF0E0C0
:10052000EE0FFF1FEC55FF4FA591B4918FB7F894D4
:10053000111105C09C91ED2FE095E92302C0EC91CB
:10054000ED2BEC938FBFDF91CF911F910895FC01AC
:10055000918D228D892F90E0805C9F4F821B9109A5
:100560008F7399270895FC01918D828D981731F032
:10057000828DE80FF11D858D90E008958FEF9FEF3C
:100580000895FC01918D828D981761F0828DDF01B5
:10059000A80FB11D5D968C91928D9F5F9F73928F76
:1005A00090E008958FEF9FEF0895FC01848DDF01A7
:1005B000A80FB11DA35ABF4F2C91848D90E00196D6
:1005C0008F739927848FA689B7892C93A089B189C5
:1005D0008C9180648C93938D848D981306C00288CF
:1005E000F389E02D80818F7D80830895CF93DF9301
:1005F000EC01888D8823C1F0EA89FB89808185FD23
:1006000005C0A889B9898C9186FD0EC00FB607FC7C
:10061000F5CF808185FFF2CFA889B9898C9185FFBC
:10062000EDCFCE01C2DFE8CFDF91CF910895EF92F9
:10063000FF920F931F93CF93DF93EC0181E0888F9C
:100640009B8D8C8D981305C0E889F989808185FD83
:1006500023C0F62E0B8D10E00F5F1F4F0F73112775
:10066000E02E8C8DE8120BC00FB607FCFACFE8899C
:10067000F989808185FFF5CFCE0197DFF2CF8B8D91
:10068000FE01E80FF11DE35AFF4FF0820B8FEA895C
:10069000FB898081806207C0EE89FF896083E889D9
:1006A000F98980818064808381E090E0DF91CF913F
:1006B0001F910F91FF90EF900895CF92DF92EF92EC
:1006C000FF921F93CF93DF93EC016A017B01122FFE
:1006D000E889F98982E080834115514E61057105F1
:1006E000A9F060E079E08DE390E0A701960140D4A5
:1006F000DA01C9010197A109B109B695A7959795A6
:100700008795AC01411580E15807A0F0E889F98987
:10071000108260E874E88EE190E0A701960128D489
:10072000BA01A9014150510961097109769567958E
:1007300057954795EC85FD855083EE85FF85408371
:10074000188EEC89FD891083EA89FB89808180619C
:100750008083EA89FB89808188608083EA89FB89BC
:10076000808180688083EA89FB8980818F7D808396
:10077000DF91CF911F91FF90EF90DF90CF90089580
:100780001F920F920FB60F9211242F938F939F9366
:10079000EF93FF93E0915101F09152018081E0913C
:1007A0005701F091580182FD12C0908180915A0149
:1007B0008F5F8F7320915B01821751F0E0915A0196
:1007C000F0E0EF5BFE4F958F80935A0101C080816E
:1007D000FF91EF919F918F912F910F900FBE0F90EE
:1007E0001F9018951F920F920FB60F9211242F93FE
:1007F0003F934F935F936F937F938F939F93AF93A9
:10080000BF93EF93FF9381E491E0CFDEFF91EF91EF
:10081000BF91AF919F918F917F916F915F914F9118
:100820003F912F910F900FBE0F901F901895E1E40C
:10083000F1E01382128288EE93E0A0E0B0E08483BE
:100840009583A683B78385E291E09183808385ECCD
:1008500090E09587848784EC90E09787868780EC8A
:1008600090E0918B808B81EC90E0938B828B82EC7B
:1008700090E0958B848B86EC90E0978B868B118E25
:10088000128E138E148E08958F929F92AF92BF9204
:10089000CF92DF92EF92FF920F931F93CF93DF934C
:1008A0007C018B016C0182E0C80ED11C4701E5E0A0
:1008B0008E0E911CC0E0D0E0F60161916F014AE01C
:1008C00050E0C801C5D05C016EE2C80167D08A0D56
:1008D0009B1DC80FD91FC814D90471F74AE050E016
:1008E000F7016581C801B4D08C0F9D1FDF91CF91B6
:1008F0001F910F91FF90EF90DF90CF90BF90AF903E
:100900009F908F900895EEEDF1E085E391E0918363
:10091000808312821382148215820895CF92DF920F
:10092000EF92FF920F931F93CF93DF936C017A01A5
:100930008B01C0E0D0E0CE15DF0589F0D8016D91C4
:100940008D01D601ED91FC910190F081E02DC60161
:100950000995892B11F47E0102C02196ECCFC701C5
:10096000DF91CF911F910F91FF90EF90DF90CF908B
:1009700008956115710579F0FB0101900020E9F7F8
:100980003197AF01461B570BDC01ED91FC910280C2
:10099000F381E02D099480E090E00895DC01ED9171
:1009A000FC910190F081E02D09944F925F926F923B
:1009B0007F92EF92FF920F931F93CF93DF93CDB768
:1009C000DEB7A1970FB6F894DEBF0FBECDBF7C0196
:1009D000FA01CB0119A2223008F42AE08E010F5D42
:1009E0001F4F422E512C612C712CBF01A30192018B
:1009F000BFD2F901CA01015011096A3014F4605DD7
:100A000001C0695CD8016C93232B242B252B69F73B
:100A1000B801C701AEDFA1960FB6F894DEBF0FBED6
:100A2000CDBFDF91CF911F910F91FF90EF907F90FD
:100A30006F905F904F9008952115310541F4DC01CE
:100A4000ED91FC910190F081E02D642F0994ADCFE0
:100A50009A01462F50E060E070E0EECF813039F02F
:100A600018F0823051F0089510926E000895809130
:100A70006F008D7F80936F000895809170008D7F4F
:100A80008093700081E08093B0008091B100887FF6
:100A900084608093B1001092B3000895CF93C82F63
:100AA00080911E018C1307C0E8EBF0E0E4918FEF1A
:100AB00080931E0101C0EFEF8E2FD0DF60E08C2FFE
:100AC000CF9116CD1F920F920FB60F9211242F9334
:100AD0003F934F935F936F937F938F939F93AF93C6
:100AE000BF93EF93FF938091E7019091E801A0916C
:100AF000E901B091EA01892B8A2B8B2B51F180916E
:100B0000E401E091E501F091E6019081892780837D
:100B10008091E7019091E801A091E901B091EA018B
:100B2000181619061A061B06BCF48091E70190916D
:100B3000E801A091E901B091EA010197A109B10989
:100B40008093E7019093E801A093E901B093EA0153
:100B500003C080911E01A2DFFF91EF91BF91AF9181
:100B60009F918F917F916F915F914F913F912F91C5
:100B70000F900FBE0F901F90189540E855E260E06F
:100B800070E080E090E000C026E081E491E095CD47
:100B90001F920F920FB60F9211242F933F934F93F2
:100BA0005F936F937F938F939F93AF93BF93EF93D5
:100BB000FF9387EF92EC909385008093840032D06E
:100BC000FF91EF91BF91AF919F918F917F916F9125
:100BD0005F914F913F912F910F900FBE0F901F90FB
:100BE000189587EF92EC9093850080938400AFE690
:100BF000B0E08C918E7F8C93E0E8F0E080818C7F78
:100C00008083E1E8F0E08081877E80838081856059
:100C1000808380818D7F80838C9181608C93089507
:100C200081E008958091EC0191E0980F9093EC01A0
:100C3000882339F021E030E03093EE012093ED017C
:100C400006C078946EDAF8948091EC01815080931C
:100C5000EC0108950F931F93CF93DF931F92CDB7AD
:100C6000DEB781E08983A4DB88DF00911F0110914A
:100C70002001F80111821082D6DAB3DF81E0F80199
:100C800020813181232B09F080E089837894789446
:100C900089818823C1F081E0F80120813181232BF3
:100CA00009F480E08093EB019091EB0181E09111D8
:100CB00080E089838981882311F0B2DF02C080E05F
:100CC00090E08983E5CFD3DAF89480E090E00F904C
:100CD000DF91CF911F910F9108955058BB27AA27FC
:100CE0000ED008C1F9D030F0FED020F031F49F3F93
:100CF00011F41EF4EEC00EF4E095E7FBE4C0E92F1A
:100D00000AD180F3BA17620773078407950718F0B2
:100D100071F49EF522C10EF4E0950B2EBA2FA02D92
:100D20000B01B90190010C01CA01A0011124FF2798
:100D3000591B99F0593F50F4503E68F11A16F04093
:100D4000A22F232F342F4427585FF3CF4695379592
:100D50002795A795F0405395C9F77EF41F16BA0B57
:100D6000620B730B840BBAF09150A1F0FF0FBB1F05
:100D7000661F771F881FC2F70EC0BA0F621F731F4E
:100D8000841F48F4879577956795B795F7959E3FAB
:100D900008F0B3CF9395880F08F09927EE0F979539
:100DA000879508956CD008F481E00895BCD088F050
:100DB0009F5790F0B92F9927B751A0F0D1F0660F47
:100DC000771F881F991F1AF0BA95C9F712C0B13062
:100DD00081F0C3D0B1E00895C0C0672F782F882775
:100DE000B85F39F0B93FCCF3869577956795B395A1
:100DF000D9F73EF490958095709561957F4F8F4F10
:100E00009F4F0895E89409C097FB3EF49095809514
:100E1000709561957F4F8F4F9F4F9923A9F0F92FC0
:100E200096E9BB279395F695879577956795B7953E
:100E3000F111F8CFFAF4BB0F11F460FF1BC06F5F24
:100E40007F4F8F4F9F4F16C0882311F096E911C036
:100E5000772321F09EE8872F762F05C0662371F057
:100E600096E8862F70E060E02AF09A95660F771F6B
:100E7000881FDAF7880F9695879597F90895990F47
:100E80000008550FAA0BE0E8FEEF16161706E80754
:100E9000F907C0F012161306E407F50798F0621B75
:100EA000730B840B950B39F40A2661F0232B242B4A
:100EB000252B21F408950A2609F4A140A6958FEF69
:100EC000811D811D089597F99F6780E870E060E0BB
:100ED00008959FEF80EC089500240A9416161706D3
:100EE00018060906089500240A941216130614061B
:100EF00005060895092E0394000C11F4882352F07E
:100F0000BB0F40F4BF2B11F460FF04C06F5F7F4F35
:100F10008F4F9F4F089557FD9058440F551F59F01C
:100F20005F3F71F04795880F97FB991F61F09F3FD6
:100F300079F087950895121613061406551FF2CFFF
:100F40004695F1DF08C0161617061806991FF1CF4F
:100F500086957105610508940895E894BB27662776
:100F60007727CB0197F908958ADF08F48FEF08956A
:100F7000A1E21A2EAA1BBB1BFD010DC0AA1FBB1F9D
:100F8000EE1FFF1FA217B307E407F50720F0A21B0F
:100F9000B30BE40BF50B661F771F881F991F1A947C
:100FA00069F760957095809590959B01AC01BD01A6
:100FB000CF010895EE0FFF1F0590F491E02D0994E5
:040FC000F894FFCFD3
:100FC4000000FC018000010000000000803F0000E0
:100FD40020410000A040000000003F013F01FFFA53
:100FE400010000000017038E04A702C102B302F639
:080FF4000200000000440400AB
:00000001FF
